{
  "contractName": "DHTLoRa",
  "abi": [
    {
      "anonymous": false,
      "inputs": [
        {
          "indexed": true,
          "internalType": "uint256",
          "name": "index",
          "type": "uint256"
        },
        {
          "indexed": false,
          "internalType": "string",
          "name": "node_id",
          "type": "string"
        },
        {
          "indexed": false,
          "internalType": "string",
          "name": "gateway_id",
          "type": "string"
        },
        {
          "indexed": false,
          "internalType": "string",
          "name": "data",
          "type": "string"
        },
        {
          "indexed": false,
          "internalType": "uint256",
          "name": "unixtime",
          "type": "uint256"
        }
      ],
      "name": "DataStoredEvent",
      "type": "event"
    },
    {
      "constant": true,
      "inputs": [
        {
          "internalType": "uint256",
          "name": "",
          "type": "uint256"
        }
      ],
      "name": "dataList",
      "outputs": [
        {
          "internalType": "string",
          "name": "nodeID",
          "type": "string"
        },
        {
          "internalType": "string",
          "name": "gatewayID",
          "type": "string"
        },
        {
          "internalType": "string",
          "name": "data",
          "type": "string"
        },
        {
          "internalType": "uint256",
          "name": "unixtime",
          "type": "uint256"
        }
      ],
      "payable": false,
      "stateMutability": "view",
      "type": "function"
    },
    {
      "constant": false,
      "inputs": [
        {
          "internalType": "string",
          "name": "_nodeID",
          "type": "string"
        },
        {
          "internalType": "string",
          "name": "_gatewayID",
          "type": "string"
        },
        {
          "internalType": "string",
          "name": "_data",
          "type": "string"
        },
        {
          "internalType": "uint256",
          "name": "_unixtime",
          "type": "uint256"
        }
      ],
      "name": "storeData",
      "outputs": [],
      "payable": false,
      "stateMutability": "nonpayable",
      "type": "function"
    },
    {
      "constant": true,
      "inputs": [
        {
          "internalType": "uint256",
          "name": "index",
          "type": "uint256"
        }
      ],
      "name": "getData",
      "outputs": [
        {
          "internalType": "string",
          "name": "",
          "type": "string"
        },
        {
          "internalType": "string",
          "name": "",
          "type": "string"
        },
        {
          "internalType": "string",
          "name": "",
          "type": "string"
        },
        {
          "internalType": "uint256",
          "name": "",
          "type": "uint256"
        }
      ],
      "payable": false,
      "stateMutability": "view",
      "type": "function"
    }
  ],
  "bytecode": "0x608060405234801561001057600080fd5b50610ae8806100206000396000f3fe608060405234801561001057600080fd5b50600436106100415760003560e01c80630178fe3f1461004657806392c9717e146101ae578063af4a74cf14610366575b600080fd5b6100636004803603602081101561005c57600080fd5b5035610383565b60405180806020018060200180602001858152602001848103845288818151815260200191508051906020019080838360005b838110156100ae578181015183820152602001610096565b50505050905090810190601f1680156100db5780820380516001836020036101000a031916815260200191505b50848103835287518152875160209182019189019080838360005b8381101561010e5781810151838201526020016100f6565b50505050905090810190601f16801561013b5780820380516001836020036101000a031916815260200191505b50848103825286518152865160209182019188019080838360005b8381101561016e578181015183820152602001610156565b50505050905090810190601f16801561019b5780820380516001836020036101000a031916815260200191505b5097505050505050505060405180910390f35b610364600480360360808110156101c457600080fd5b8101906020810181356401000000008111156101df57600080fd5b8201836020820111156101f157600080fd5b8035906020019184600183028401116401000000008311171561021357600080fd5b91908080601f016020809104026020016040519081016040528093929190818152602001838380828437600092019190915250929594936020810193503591505064010000000081111561026657600080fd5b82018360208201111561027857600080fd5b8035906020019184600183028401116401000000008311171561029a57600080fd5b91908080601f01602080910402602001604051908101604052809392919081815260200183838082843760009201919091525092959493602081019350359150506401000000008111156102ed57600080fd5b8201836020820111156102ff57600080fd5b8035906020019184600183028401116401000000008311171561032157600080fd5b91908080601f01602080910402602001604051908101604052809392919081815260200183838082843760009201919091525092955050913592506105c9915050565b005b6100636004803603602081101561037c57600080fd5b503561080a565b60608060606000808054905085106103d2576040805162461bcd60e51b815260206004820152600d60248201526c092dcecc2d8d2c84092dcc8caf609b1b604482015290519081900360640190fd5b60008086815481106103e057fe5b906000526020600020906004020190508060000181600101826002018360030154838054600181600116156101000203166002900480601f0160208091040260200160405190810160405280929190818152602001828054600181600116156101000203166002900480156104965780601f1061046b57610100808354040283529160200191610496565b820191906000526020600020905b81548152906001019060200180831161047957829003601f168201915b5050865460408051602060026001851615610100026000190190941693909304601f8101849004840282018401909252818152959950889450925084019050828280156105245780601f106104f957610100808354040283529160200191610524565b820191906000526020600020905b81548152906001019060200180831161050757829003601f168201915b5050855460408051602060026001851615610100026000190190941693909304601f8101849004840282018401909252818152959850879450925084019050828280156105b25780601f10610587576101008083540402835291602001916105b2565b820191906000526020600020905b81548152906001019060200180831161059557829003601f168201915b505050505091509450945094509450509193509193565b6105d16109f0565b506040805160808101825285815260208082018690529181018490526060810183905260008054600181018083559180528251805193949293859360049093027f290decd9548b62a8d60345a988386fc84ba6bc95484008f6362f93160ef3e5630192610642928492910190610a18565b50602082810151805161065b9260018501920190610a18565b5060408201518051610677916002840191602090910190610a18565b506060820151816003015550505060006001600080549050039050807fd45e89ec228ca8f6e0277cd7f3755715c5978741092559d65c9375cb68b157128787878760405180806020018060200180602001858152602001848103845288818151815260200191508051906020019080838360005b838110156107035781810151838201526020016106eb565b50505050905090810190601f1680156107305780820380516001836020036101000a031916815260200191505b50848103835287518152875160209182019189019080838360005b8381101561076357818101518382015260200161074b565b50505050905090810190601f1680156107905780820380516001836020036101000a031916815260200191505b50848103825286518152865160209182019188019080838360005b838110156107c35781810151838201526020016107ab565b50505050905090810190601f1680156107f05780820380516001836020036101000a031916815260200191505b5097505050505050505060405180910390a2505050505050565b6000818154811061081757fe5b60009182526020918290206004919091020180546040805160026001841615610100026000190190931692909204601f8101859004850283018501909152808252919350918391908301828280156108b05780601f10610885576101008083540402835291602001916108b0565b820191906000526020600020905b81548152906001019060200180831161089357829003601f168201915b505050505090806001018054600181600116156101000203166002900480601f01602080910402602001604051908101604052809291908181526020018280546001816001161561010002031660029004801561094e5780601f106109235761010080835404028352916020019161094e565b820191906000526020600020905b81548152906001019060200180831161093157829003601f168201915b50505060028085018054604080516020601f60001961010060018716150201909416959095049283018590048502810185019091528181529596959450909250908301828280156109e05780601f106109b5576101008083540402835291602001916109e0565b820191906000526020600020905b8154815290600101906020018083116109c357829003601f168201915b5050505050908060030154905084565b6040518060800160405280606081526020016060815260200160608152602001600081525090565b828054600181600116156101000203166002900490600052602060002090601f016020900481019282601f10610a5957805160ff1916838001178555610a86565b82800160010185558215610a86579182015b82811115610a86578251825591602001919060010190610a6b565b50610a92929150610a96565b5090565b610ab091905b80821115610a925760008155600101610a9c565b9056fea265627a7a723158208f0c67d9bca3ba8012da0d896e1aa429056bfcee013b0c9f490fcfacebcf4a3064736f6c63430005100032",
  "source": "//SPDX-License-Identifier: MIT\r\npragma solidity >=0.4.22 <0.7.0;\r\n\r\ncontract DHTLoRa{\r\n\r\n    struct Data {\r\n        string nodeID;\r\n        string gatewayID;\r\n        string data;\r\n        uint256 unixtime;\r\n    }\r\n\r\n    Data[] public dataList;\r\n\r\n    event DataStoredEvent(uint indexed index, string node_id, string gateway_id, string data, uint256 unixtime);\r\n\r\n    function storeData(string memory _nodeID, string memory _gatewayID, string memory _data, uint256 _unixtime) public {\r\n        Data memory newData = Data( _nodeID, _gatewayID, _data, _unixtime);\r\n        dataList.push(newData);\r\n        uint index = dataList.length - 1;\r\n        emit DataStoredEvent(index, _nodeID, _gatewayID, _data, _unixtime);\r\n    }\r\n\r\n    function getData(uint index) public view returns (string memory, string memory, string memory, uint256){\r\n        require(index < dataList.length, \"Invalid Index\");\r\n        Data storage data = dataList[index];\r\n        return (data.nodeID, data.gatewayID, data.data, data.unixtime);\r\n    }\r\n}",
  "sourcePath": "C:\\Users\\agusp\\OneDrive\\Documents\\learn_code\\blockchain\\Supplychain LoRa\\supplychain_lora\\contracts\\DHTLoRa.sol",
  "compiler": {
    "name": "solc",
    "version": "0.5.16+commit.9c3226ce.Emscripten.clang"
  },
  "schemaVersion": "3.4.13",
  "updatedAt": "2023-06-18T05:56:29.185Z",
  "networkType": "ethereum",
  "devdoc": {
    "methods": {}
  },
  "userdoc": {
    "methods": {}
  }
}